S01100005446545F65786D706C2E73726563A0
S11300000C94FD030C941A040C941A040C941A0412
S11300100C941A040C941A040C941A040C941A04E4
S11300200C941A040C941A040C941A040C941A04D4
S11300300C941A040C941A040C941A040C941A04C4
S11300400C941A040C941A040C941A040C941A04B4
S11300500C941A040C941A040C941A040C941A04A4
S11300600C941A040C941A0408036F00207E1600E2
S11300700000000500010000020D0602F404000562
S1130080040601F407000A0C0A00F5160009100A18
S113009001F32800100D1001F442000B0D0C01F4C3
S11300A0540002040401F4550004110601F45E0036
S11300B004110601F4670005050701F46B00060846
S11300C00B03F97100020405020072000401060129
S11300D0FC730002010501007400050D0500F47DA8
S11300E000080D0A01F48A00040D0A03F4910009C2
S11300F00D0A01F4A000080D0A01F4AD00070D0A71
S113010002F4B900090D0A01F4C800090D0A01F44A
S1130110D700080D0A00F4E400090D0A01F4F30005
S1130120080D0A01F40001020A0501F70301030C9A
S11301300501F8080109090B01F8130109040B0171
S1130140FB180109090B01F82301090D0A01F43216
S11301500111101201F454010C0D0C00F468010B90
S11301600D0C01F47A010B0D0D01F48C010B0D0D36
S113017001F49E01090D0B01F4AD01080D0B01F40E
S1130180BA010C0D0E01F4CE010B0D0D01F4E001CA
S1130190020D0502F4E401070D0A01F4F0010B0D50
S11301A00C01F40202080D0A01F40F020D0D0F01F7
S11301B0F425020B0D0D01F437020D0D0E01F44D63
S11301C0020A0D0C01F45E020D0E0E01F475020C10
S11301D00D0D01F489020A0D0C01F49A02090D0BAC
S11301E001F4A9020B0D0D01F4BB020B0D0C00F47C
S11301F0CD02110D1100F4E9020C0D0C00F4FD0206
S11302000C0D0C00F411030A0D0B01F4220303116D
S11302100501F42903050D0500F43203031105005B
S1130220F4390307070801F440030A010A000342F2
S11302300304030500F44403090A0A01F7500309FF
S11302400D0A01F45F03080A0901F76903080D0A9E
S113025001F47603080A0A01F78003040D0501F48A
S11302608703080E0A01F79503080D0A01F4A20397
S1130270020D0401F4A60304110400F4AF03090DF4
S11302800901F4BE03020D0401F4C2030D0A0F01B7
S1130290F7D303080A0A01F7DD03080A0A01F7E79E
S11302A003090D0A01F7F603080D0A01F703040513
S11302B00A0601F70A04080A0901F71404040C05E4
S11302C001F51A04080A0A01F72404090A0900F7C7
S11302D030040D0A0D00F74104080A0900F74B0425
S11302E0090E0900F75B04070A0901F76404041105
S11302F00601F46D0402110402F4720404110601EF
S1130300F47B0407030901F9FFFFF8C0DEF72009B5
S1130310864191FF1304C320C8FF89826190101F96
S113032014DA3D1E8340781708F47A3533F0402000
S11303303810EC20C620C640C6406C803900013C11
S11303400277026304630477083C0E0660CC1981CB
S1130350E0180F0336C2D8730631E3C4FE13266CCB
S1130360CCCCC46623108C4663333332664C802570
S11303707EA50030C33F30C30CD6F0C00844211022
S113038084421108003C6642C3C3C3C3C3C3C3420F
S1130390663C113F33333333303E31B07830181C70
S11303A01C1C1818100807F83C66C3C303061C0776
S11303B003C3C3663C0C187162C9A346FE183060BF
S11303C0C07F2010080807F38C030180F06C63E001
S11303D01E3198780C06F38D83C1E0D06C63E0FF86
S11303E0030206040C081818181030303E31B07897
S11303F03C1B18F8C6C1E0F06C63E03C66C2C3C3A2
S1130400C3673B0303C2663CC00030C0000064A065
S11304100081C78E0C0780700E0180FF80001FF0E2
S113042000700E01C0183871C080003E31B07830C1
S113043018183818180C0000018003F0060E060185
S11304408600661DBB31CF18C79863CC31E611B363
S113045099CCF7860001800070400FE00600F00F91
S1130460009019819810830C3FC204606606C03066
S1130470FF183303606C0D833FC606C0780F01E09C
S11304806FF81F861981A03C0180300600C0680DFA
S1130490831861F0FF183303603C0780F01E03C02B
S11304A0780F0360CFF0FFE030180C0603FD80C026
S11304B06030180FF8FFC0C0C0C0C0FEC0C0C0C0CC
S11304C0C0C00F830E606603C00C00C1FC03C036BD
S11304D00360730F0F10C0780F01E03C0780FFFE2C
S11304E003C0780F01E03C06FFFFFFC0060C183084
S11304F060C183078F1E2780C0D8330C630CC1B83A
S11305003F0730C3186306606C0CC0C0C0C0C0C0D5
S1130510C0C0C0C0C0C0FFE03F01FC1FE0FD05EC4F
S11305206F637913CD9E6CF1478E3C7180E07C0F34
S1130530C1E83D8798F11E33C3786F07E07C0E0F46
S11305408183180CC06C01E00F007803C01B019874
S11305500C60C0F800FF306C0F03C0F06FF300C0F4
S1130560300C0300C0000F8183180CC06C01E00F35
S1130570007803C01B01986C60C0FB0008FF8C0E60
S1130580C06C06C06C0CFF8C0EC06C06C06C06C040
S1130590703F186C0F03C01E01F00E00F03C0D8676
S11305A03F00FF86030180C06030180C0603018001
S11305B0C0C0780F01E03C0780F01E03C0780F0133
S11305C0B061F0C06C0D8110630C610460CC190142
S11305D0603C070060C18130E19870CC2866262118
S11305E01330C8986C4C14340A1A0707030380812B
S11305F08060630C30C1980F00E00600F019019888
S113060030C60E6060C0360630C30C1981D80F00A6
S1130610600600600600600600FFC060300C060340
S113062001C0603018060300FFC0FB6DB6DB6DB679
S1130630E0841084108410841080EDB6DB6DB6DB8A
S1130640E03060A244D8A180FFC0C6307E71B0C043
S113065060F3DB0D86C73DC0C060301BCE360F078C
S113066083C1E0F07C6DE03C66C3C0C0C0C0C3661B
S11306703C0303033B67C3C3C3C3C3C3673B3C66B9
S1130680C3C3FFC0C0C3663C366F66666666603B24
S113069067C3C3C3C3C3C3673B0303C67CC0C0C033
S11306A0DEE3C3C3C3C3C3C3C3C3C3FFFFC03003B9
S11306B0333333333333E0C06030184C466361F076
S11306C0EC6231986C30FFFFFFC0DEF71CF0C78688
S11306D03C31E18F0C7863C31E18C0DEE3C3C3C38F
S11306E0C3C3C3C3C33C66C3C3C3C3C3C3663CDE83
S11306F071B0783C1E0F0783E36F30180C003B6722
S1130700C3C3C3C3C3C3673B030303DF318C631891
S1130710C6003EE3C0C0E03C07C3E37E66F66666FF
S11307206667C3C3C3C3C3C3C3C3C77BC1A098CCD9
S11307304221B0D0281C0C00C61E3891C4CA66D30E
S113074016D0A6871C38C0C6004362361C181C3C51
S1130750266243C12198CC4261B0D0381C0C0603F8
S1130760010300FE0C30C1861820C1FC3666666E9B
S1130770CE66666630FFFFFFFFC0C66666673766F3
S11307806666C061243804E010021C07123732295F
S11307902D29252B3900010310E110031D07062E16
S11307A02C292D2E2E373F0000021013800A298099
S11307B064022A040000007F2B040000009F0F0144
S11307C080961180FFB103012C2DB203012C2DB3AF
S11307D006012C2D012C2DB40107C003A20284C1F3
S11307E001C5C2020A00C3028A2AC4028AEEC501F4
S11307F00E20003601C83A01050011241FBECFEFB8
S1130800D8E0DEBFCDBF11E0A0E0B1E0E4E5F5E162
S113081002C005900D92AC32B107D9F721E0ACE2E9
S1130820B1E001C01D92AC34B207E1F70E94E904C3
S11308300C94A80A0C9400001F93CF93DF9300D06C
S113084000D01F92CDB7DEB7FC019E012F5F3F4F52
S113085085E0D9011D928A95E9F78AB182608AB947
S11308609BB192609BB9BFEF20E782E0B15020407A
S11308708040E1F700C000009BB19D7F9BB9AFE9C8
S1130880BCE81197F1F700C000009BB192609BB9DE
S11308909AB19D7F9AB9BAE6BA95F1F700C0499921
S11308A061C025ED2A95F1F70000499B5DC085EDF7
S11308B08A95F1F7000010E034C02F5F3F4F293CC8
S11308C0310518F053C020E030E0499BF6CFA0E595
S11308D0AA95F1F7499B0CC047E050E0491B510928
S11308E021E030E002C0220F331F4A95E2F7822B49
S11308F020E030E005C02F5F3F4F293C3105C0F5B3
S11309004999F9CF9F5F02C080E090E09830D8F217
S113091021E030E02C0F3D1F210F311DD9018C93B4
S11309201F5F153088F38AB182608AB98BB1826007
S11309308BB9BFEF20E782E0B15020408040E1F75F
S113094000C0000089819A813B812C81890F830F2B
S1130950820F9D8189130EC030838981DB018C93C2
S113096080E009C08FEF07C08FEF05C08FEF03C091
S11309708FEF01C08FEF0F900F900F900F900F909B
S1130980DF91CF911F9108950E941C0408950F9345
S11309901F93FC01E61BF70B021B130BE09FC00126
S11309A0E19F900DF09F900D1124FA01E61BF70BC7
S11309B0BF01AF0112F44F5F5F4F55954795840F08
S11309C0951F0E94420AC901860F971F1F910F911C
S11309D008950E9438060E94A3062FEF80E792E054
S11309E0215080409040E1F700C0000083E00E9465
S11309F0FC062FEF80E792E0215080409040E1F721
S1130A0000C0000000EE17E025EA42E860E080E064
S1130A100E942508E12CF12C01E028E630E044E0B6
S1130A2051E062E185E00E94140928E630E041E1EA
S1130A3051E06AE385E00E94140900E010E020E53B
S1130A4040E860E580E00E94A5092BE640E86BE6FB
S1130A5080E00E94A5092DE640E86DE680E00E9452
S1130A60A5092EE940E86EE980E00E94A5092FE976
S1130A7040E86FE980E00E94A50960E371E081E34A
S1130A8091E00E94C4048F3F09F446C08091310173
S1130A904AE062E471E0082E000C990B0E94730A8C
S1130AA0809130014AE068E371E0082E000C990B54
S1130AB00E94730A00EE17E024E140E869E180E057
S1130AC00E9425082FE040E861E480E00E942508A8
S1130AD0E12CF12C01E028E630E042E451E066E24A
S1130AE085E00E94140928E630E04BE151E066E21B
S1130AF082E30E94140928E630E048E351E06EE402
S1130B0085E00E94140928E630E041E251E06EE4F9
S1130B1082E30E94140929C000EE17E024E140E8B2
S1130B2069E180E00E94250824E140E861E480E076
S1130B300E9425080F2EE12CF8EFFF2EF02D01E086
S1130B4028E630E045E251E068E285E00E941409BD
S1130B500F2EFFE1EF2EF12CF02D28E630E045E2D8
S1130B6051E060E585E00E941409C0900001D09036
S1130B700101E0900201F090030120E8C216D104C3
S1130B80E104F10408F044C08091300100E310E076
S1130B9020E030E044E650E06EE170E0082E000C06
S1130BA0990B0E94C7049DE9981B90932E01809194
S1130BB031010AE110E020E030E043E250E06AE075
S1130BC070E0082E000C990B0E94C7042AE6281B2B
S1130BD020932F0100E018EF4C2D60912D018FEF31
S1130BE08C0D0E94A509809100010FE110E0209175
S1130BF02E01482F60912C0181500E94A5098091FB
S1130C002F0180932D0180912E0180932C0116C019
S1130C10109200011092010110920201109203013E
S1130C2000EE17E02AE140E861E580E00E94250833
S1130C3020E340E86EE680E00E94250880910001F0
S1130C4090910101A0910201B09103010196A11DAF
S1130C50B11D8093000190930101A0930201B09310
S1130C6003018FE19EE40197F1F700C0000005CF76
S1130C708CE284B980E58CBD85B1846085B9089522
S1130C80CF93DF939C012F5F3F4FFC01A49170E051
S1130C9054C0C9010196F90144915BB15F7B5BB912
S1130CA055B15B7F55B94EBD0DB407FEFDCF45B1BF
S1130CB0446045B92E5F3F4FFC016491B62FB07874
S1130CC06F7790E014C0A9014F5F5F4FF901249141
S1130CD08BB180648BB985B18B7F85B92EBD0DB482
S1130CE007FEFDCF85B1846085B99F5F9A01961791
S1130CF050F3BB2309F1E9012196F90124912F3F17
S1130D0099F4FFEF24E38CE0F15020408040E1F7B8
S1130D1000C000009E0110C0EFE0F7E23197F1F748
S1130D2000C00000059602C080E090E0422F50E031
S1130D30841795078CF39E017F5F7A1708F4A9CF77
S1130D40DF91CF9108958AB1806C8AB985B18B7F88
S1130D5085B98BB180688BB92FEF84E39CE0215077
S1130D6080409040E1F700C000008BB18F778BB9D1
S1130D702FEF84E39CE0215080409040E1F700C0D5
S1130D8000008BB180688BB92FEF84E39CE0215085
S1130D9080409040E1F700C000008EEB97E00E9495
S1130DA0400681EB97E00E94400686E897E00E94A7
S1130DB040068BB18F7B8BB985B18B7F85B986E378
S1130DC08EBD0DB407FEFDCF85B1846085B98BB1AE
S1130DD080648BB985B18B7F85B980EC8EBD0DB4F1
S1130DE007FEFDCF85B1846085B980E88093330127
S1130DF080EA8093320108959BB19F7B9BB995B1A2
S1130E009B7F95B996E39EBD0DB407FEFDCF95B1CA
S1130E10946095B9813039F018F1823009F459C0E1
S1130E208330D9F108958BB180648BB985B18B7F00
S1130E3085B980EC8EBD0DB407FEFDCF85B184600D
S1130E4085B980E88093330180EA809332018091F0
S1130E5036018093340180913701809335010895E0
S1130E608BB180648BB985B18B7F85B980EA8EBDE7
S1130E700DB407FEFDCF85B1846085B980EA809307
S1130E80330180E8809332018091370180933401EB
S1130E90809136018093350108958BB180648BB9BC
S1130EA085B18B7F85B91EBC0DB407FEFDCF85B11E
S1130EB0846085B980E88093330180EA80933201AD
S1130EC080913601809334018091370180933501FC
S1130ED008958BB180648BB985B18B7F85B980E629
S1130EE08EBD0DB407FEFDCF85B1846085B980EA5F
S1130EF08093330180E8809332018091370180939D
S1130F003401809136018093350108959BB19F7B14
S1130F109BB995B19B7F95B99AE29EBD0DB407FE2E
S1130F20FDCF95B1946095B99BB190649BB995B18F
S1130F309B7F95B91EBC0DB407FEFDCF95B194609F
S1130F4095B990913401890F9BB190649BB995B187
S1130F509B7F95B98EBD0DB407FEFDCF85B184602E
S1130F6085B98BB180648BB985B18B7F85B91EBC83
S1130F700DB407FEFDCF85B1846085B9809134013D
S1130F80480F8BB180648BB985B18B7F85B94EBD19
S1130F900DB407FEFDCF85B1846085B98BB18F7B1D
S1130FA08BB985B18B7F85B98BE28EBD0DB407FEFD
S1130FB0FDCF85B1846085B98BB180648BB985B16F
S1130FC08B7F85B91EBC0DB407FEFDCF85B184604F
S1130FD085B980913501680F8BB180648BB985B177
S1130FE08B7F85B96EBD0DB407FEFDCF85B18460DE
S1130FF085B98BB180648BB985B18B7F85B91EBCF3
S11310000DB407FEFDCF85B1846085B980913501AB
S1131010280F8BB180648BB985B18B7F85B92EBDC8
S11310200DB407FEFDCF85B1846085B98BB18F7B8C
S11310308BB985B18B7F85B98CE28EBD0DB407FE6B
S1131040FDCF85B1846085B908950F931F93CF9325
S1131050DF93C42FD22F90913301891708F041C038
S1131060409132016417E8F52C2F30E0280F311D30
S113107021503109E92FF0E02E173F0714F0C92F52
S1131080C81B2D2F30E0260F311D21503109E42FCC
S1131090F0E02E173F0714F0D42FD61B2D2F260F68
S11310A021504C2F480F41500E9486078BB1806419
S11310B08BB985B18B7F85B990E00EC01EBD0DB490
S11310C007FEFDCF0EBD0DB407FEFDCF8F5F01C03F
S11310D080E08C1798F39F5F9D17D0F385B18460EF
S11310E085B9DF91CF911F910F9108953F924F924F
S11310F05F926F927F928F929F92AF92BF92CF92A4
S1131100DF92EF92FF920F931F93CF93DF9300230D
S113111009F478C0702EF9016A01462E582E808099
S11311209180FA01A080B180612C40E050E0C0E0E1
S1131130D0E064C0C11108C0C5010196F401EA0DF4
S1131140FB1DD4915C01C0E88D2F8C2319F04F5FF7
S11311505F4F26C04115510519F1F6018681262DF0
S113116030E0280F311D87FD3A953581832D90E0BD
S1131170830F911D37FD9A95841B950B749E402D0A
S11311801124642D729E600D11248701272DF52DE5
S1131190789EF00D11248F2F0E94250840E050E026
S11311A0C695339401C0312CF6018281381608F4B7
S11311B0C1CF4115510509F12681862D90E0820F9A
S11311C0911D27FD9A959581A32DB0E0A90FB11D1E
S11311D097FDBA95A41BB50B749E402D1124642D64
S11311E0789E600D11248701272D852D7A9E800D10
S11311F011240E94250840E050E06394F6018381A5
S1131200681688F2DF91CF911F910F91FF90EF90B4
S1131210DF90CF90BF90AF909F908F907F906F9012
S11312205F904F903F9008952F923F924F925F921C
S11312306F927F928F929F92AF92BF92CF92DF92E2
S1131240EF92FF920F931F93CF93DF93CDB7DEB747
S11312502E970FB6F894DEBF0FBECDBF5A01102FE4
S11312601701482E880F5508862E660F990847E007
S113127050E0B901CE0101960E946A0A3201C12CE4
S1131280D12C3FC0F501EC0DFD1D80818A3039F46D
S11312908F81819F800C911C112432012FC02D81DC
S11312A0821760F19E81981748F18D3039F14B8196
S11312B05C8190E0821B9109BC01660F771F660F69
S11312C0771F660F771F681B790B640F751F47E044
S11312D050E0CE0108960E946A0A7101012F9E0116
S11312E02F5F3F4FAE01485F5F4FB401C3010E94BF
S11312F076088C85819F600C711C11248FEFC81AAD
S1131300D80AF50101900020E9F73197EA19FB09A1
S1131310CE16DF0608F4B6CF2E960FB6F894DEBFCD
S11313200FBECDBFDF91CF911F910F91FF90EF9032
S1131330DF90CF90BF90AF909F908F907F906F90F1
S11313405F904F903F902F9008952F923F924F922D
S11313505F926F927F928F929F92AF92BF92CF9241
S1131360DF92EF92FF920F931F93CF93DF93362E6A
S1131370442E3801422F50E0461B51095A0122F4F1
S1131380AA24BB24A41AB50A442D50E0481B5109D1
S11313906A0122F4CC24DD24C41AD50ACA14DB045D
S11313A034F4942D422E292F982F832D392E48164C
S11313B030F4932D322E292F982F842D492E842CEE
S11313C0912C881A9108422F50E0431951097A014F
S11313D022F4EE24FF24E41AF50AE40199200CF423
S11313E02196D595C795321618F42224239402C069
S11313F022242A94582E1EC0CE19DF09D2F4CA140E
S1131400DB0454F4252D281B2F5F830141E0682F52
S1131410832D0E94250808C0452D481B4F5F83017A
S113142021E0632D0E942508320CC80DD91D81E0EE
S1131430850D5394451400F7CA14DB044CF4252D90
S1131440281B830141E0682F832D0E94250807C0D3
S1131450452D481B830121E0632D0E942508DF915F
S1131460CF911F910F91FF90EF90DF90CF90BF909D
S1131470AF909F908F907F906F905F904F903F9030
S11314802F90089597FB072E16F4009407D077FD4C
S113149009D00E94560A07FC05D03EF49095819528
S11314A09F4F0895709561957F4F0895AA1BBB1BAC
S11314B051E107C0AA1FBB1FA617B70710F0A61B50
S11314C0B70B881F991F5A95A9F780959095BC0171
S11314D0CD010895FB01DC0102C005900D9241503D
S11314E05040D8F70895BB274A3031F4992322F4A9
S11314F0BDE2909581959F4F0C947F0ABB27FB0119
S11315005527AA27880F991FAA1FA41710F0A41BF8
S113151083955051B9F7A05DAA3308F0A95DA19352
S1131520009779F7B111B1931192CB010C94980AF9
S1131530DC01FC01672F71917723E1F7329704C036
S11315407C916D9370836291AE17BF07C8F30895C1
S1071550F894FFCF39
S11315540100000054656D70657261747572653ABA
S11315640048756D756E6974793A0073742E20435E
S10F157400202520004552524F52000078
S9030000FC
